:02000000292BAA
:10000800FF00030E83018316A0000A08A1008A01DD
:100018007C088312A1007D08A0000230FC006F302C
:10002800FD00FD0B1528FC0B152800000000061824
:1000380036280430FC007530FD00FD0B2128FC0B30
:1000480021280000061C36280430FC007530FD000D
:10005800FD0B2C28FC0B2C28000006183628013034
:10006800EB008B018B102108FC002008FD00831693
:0E00780021088A00200E8300FF0E7F0E090073
:0800860000000000000008006A
:10008E00163083120313FC006C30FD00FD0B4D285F
:08009E00FC0B4D2800000800D6
:1000A600313083120313FD00FD0B572800000000BA
:0200B600080040
:1000B80083160313AB1B63288312881265288312E7
:1000C800881683162B1B6B28831208126D2883123F
:1000D80008168316AB1A73288312881175288312A1
:1000E800881583162B1A7B28831208117D28831202
:1000F8000815E61881280814822808108814432057
:1001080088108316AB198B28831288128D288312C6
:10011800881683162B1993288312081295288312A0
:1001280008168316AB189B28831288119D28831202
:10013800881583162B18A32883120811A528831263
:100148000815E618A9280814AA28081088144320B6
:0E0158008810E61CB1284720B228532008006A
:1001660083120313E61083162A08AB005C20E614FC
:0201760008007F
:1001780083120313F8010830FC00700DF80D7408A1
:10018800F8020318C928F8070310F00DFC0BC12862
:0201980008005D
:10019A0083160313A801033028020318DB28280852
:1001AA002707840020308000A80AD02828082707BB
:1001BA0084008001A80328082707A9000A30F40050
:1001CA002608F000BC207808F0003030F0078316CB
:1001DA0029088400700880000A30F4002608F0001C
:1001EA00BC2070088316A6007008003A031DFE287A
:0801FA000029A803E028080019
:100202001329803083160313A6002629C030A600C6
:1002120026299430A6002629D430A600262980302B
:10022200A6002629831603132608013A0319022978
:100232002608023A031907292608033A03190A294C
:100242002608043A03190D2910292703F00026086D
:10025200F0077008A6007008AB005C20E610831659
:10026200A90129082807840000080319412929083F
:10027200280784000008AA00B3208316A90A32299D
:060282008312E6140800DF
:0E0288008312031369088A00680882000800C8
:10029600710DF80DF90D7408F8027508031C750F39
:1002A600F902F00DF10D0F30FC00710DF80DF90D8E
:1002B6007408701C6429F8027508031C750FF9028E
:1002C6006929F80775080318750FF907F00DF10D80
:1002D600FC0B5829701875297408F8077508031857
:0802E600750FF9070000080084
:1002EE0083120313FB01FA01F9018030F800F10CBF
:1002FE00F00C031C8B297408F90775080318750F89
:10030E00FA070318FB0A0310F01F93297408FA0763
:10031E0075080318750FFB07FB0CFA0CF90CF80C9B
:10032E00031C7E297B08F3007A08F2007908F1009D
:06033E007808F000080041
:1003440083160313A701A8012608F2002608F30068
:10035400720884000008203A031DB52927082804E0
:10036400031DB529C2290130A7000030A800720876
:1003740084000008F0007308840070088000F30A09
:100384007208F100F20A710884000008003A031DA3
:08039400AA292608F000080068
:10039C00831603131208013EF000F1010318F10A51
:1003AC002208F400F50177210630F2007008F40001
:1003BC007108F50072080319E829F50CF40CF51313
:1003CC00FF3EE1290430F1007408F00071080319B4
:1003DC00F329F00D7010FF3EED2930307005F3005D
:1003EC007408F0007508F100F10CF00CF113F10C2D
:1003FC00F00CF113700895000F30970573089704F3
:02040C000800E6
:10040E00831603130711831212150C30970408007C
:10041E00831203137408003A031D1E2A7508003A4E
:10042E00031D1E2AFF30F0007F30F100772A831261
:10043E000313FD01F901F80171087004031900346A
:10044E0071087506FA00FA1BFD09FB01F51F342A27
:10045E00F409F509F40A0319F50AF11F3B2AF0090C
:10046E00F109F00A0319F10A71087504FA00FA1B72
:10047E00502A4B217B18632AFD1F0034F009F10925
:10048E00F00A0319F10AF809F909F80A0319F90A29
:10049E000034F51F5F2AF11B5B2A7108F900700802
:1004AE00F800F101F001432AF101F001F00A0034E5
:1004BE00F109F009FB0A402AF80A0319F90A74082F
:1004CE007802031D432A75087902031D432AF90198
:1004DE00F801F00A0319F10AF11F432A0000FF3454
:0204EE00080004
:1004F000013083160313AB005C202230E70001308B
:100500008316A6000230A700831267088316A8008E
:1005100001216618982A3E30E70001308316A600B4
:100520000C30A700831267088316A8000121A42AB3
:100530003A30E70001308316A6000C30A700831282
:1005400067088316A80001213030E70002308316C7
:10055000A6000330A700831267088316A8000121B4
:1005600056088316A6006C30A700CD206C30A6007C
:10057000A2217008A8000230A6000C30A7000121BB
:02058000080071
:1005820044218A110A128000840AE80A0319E90A3E
:08059200F003031DC12A08005B
:10059A00831603138810081008118811081288128C
:1005AA00831288100810881208128811081147202F
:1005BA0047204720881508158814432088104720AB
:1005CA008814432088104720881443208810472025
:1005DA000811881443208810472088144320881063
:1005EA008811881688144320881047208812081515
:1005FA008814432088100811881443208810472043
:10060A00881443208810081588144320881047202E
:10061A0008118814432088108816081688150815AA
:0C062A008814432088104720E6140800C4
:1006360083160313071583121211F030970508006D
:0C0646008312031395011712971208008D
:100652005C24831603138101831286010130831601
:10066200860083128701831687018312880183160D
:1006720088018312121492104A30831692002323A7
:10068200CD220C308316AB005C2001308316AB0008
:100692005C204F30E70001308316A6000630A70029
:1006A200831267088316A80001215730E700023041
:1006B2008316A6000230A700831267088316A800DB
:1006C20001211030FB003930FC000D30FD00FD0B24
:1006D200682BFC0B682BFB0B682B00000000903092
:1006E2008B006B08031D762B722BEB013130FC0063
:1006F2007C30FD00FD0B7B2BFC0B7B2B0000EA0109
:1007020006306A020318B42B0618982B6A08053CB7
:10071200F0007008F1000130F00071080319952B08
:10072200F00D7010FF3E8F2B7008CE04A92B6A08C3
:10073200053CF0007008F1000130F0007108031967
:10074200A62BF00D7010FF3EA02BF0097008CE050D
:100752000730FC00EC30FD00FD0BAD2BFC0BAD2B8C
:100762000000EA0A812B4E080C3A031DCB2B8701AD
:100772001B2301308316AB005C204130E7000130BF
:100782008316A6000330A700831267088316A80009
:100792000121702B4E08103A031DD52B66147822C6
:1007A200013087000722702B4E08113A031DDF2B00
:1007B20066107822023087000722702B4E08203AFA
:1007C200031DEE2BD60A8030643AF00080305606C4
:1007D20070020318EE2B6430D6004E08213A031D36
:1007E200FC2BD60380305606F0008030013A7002AE
:1007F2000318FC2BD6015608F0000030F01BFF3026
:10080200F100FF30F400F50177216430F40000308C
:10081200F5000F2270088316A200CE21072278224B
:04082200702B122CF9
:1008B80022308400443083120313F0001830E8001B
:0808C8000430E900C122080020
:1008300044346934723465346334743469346F34E5
:0C0840006E343A3420342034203400346C
:10084C005334703465346534643428342534293495
:04085C003D340034F3
:080860004334433457340034E3
:0608680043345734003454
:10086E004D346F3474346F347234203469347334CD
:0A087E0020344F3446344634003471
:0208880000343A
:0E088A00523465346D346F3474346534003488
:0208980000342A
:10089A0043346F346E34743472346F346C346C3461
:0E08AA00653464342034443443344D34003417
:02400E004A2F37
:00000001FF
